:020000040000FA
:08000800FD000308FE000A08D8
:10001000FF0012280000A00A1230A002031C3E2894
:10002000A0012114831603138701C03086008316B4
:100030000313073081008312031310308B008312E7
:1000400003179E019F0183120313870107100130DC
:100050008700A11C292821103320870D031C292883
:10006000071403102928A00B3328A20B3328A00B58
:100070003728A20B372808003328292801308700A9
:040080000310292818
:02400E00E4309C
:084200000100020003000400AC
:00000001FF
